{
  "address": "0xA3C1a5c4E7e754A2633CFF61329d30894291A95E",
  "abi": [
    {
      "anonymous": false,
      "inputs": [
        {
          "indexed": false,
          "internalType": "uint8",
          "name": "version",
          "type": "uint8"
        }
      ],
      "name": "Initialized",
      "type": "event"
    },
    {
      "anonymous": false,
      "inputs": [
        {
          "indexed": true,
          "internalType": "address",
          "name": "owner",
          "type": "address"
        },
        {
          "indexed": true,
          "internalType": "address",
          "name": "nft",
          "type": "address"
        },
        {
          "indexed": false,
          "internalType": "uint256",
          "name": "tokenId",
          "type": "uint256"
        }
      ],
      "name": "ItemCanceled",
      "type": "event"
    },
    {
      "anonymous": false,
      "inputs": [
        {
          "indexed": false,
          "internalType": "address",
          "name": "owner",
          "type": "address"
        },
        {
          "indexed": false,
          "internalType": "address",
          "name": "nft",
          "type": "address"
        },
        {
          "indexed": false,
          "internalType": "uint256",
          "name": "tokenId",
          "type": "uint256"
        },
        {
          "indexed": false,
          "internalType": "uint256",
          "name": "quantity",
          "type": "uint256"
        },
        {
          "indexed": false,
          "internalType": "address",
          "name": "payToken",
          "type": "address"
        },
        {
          "indexed": false,
          "internalType": "uint256",
          "name": "pricePerItem",
          "type": "uint256"
        },
        {
          "indexed": false,
          "internalType": "uint256",
          "name": "startingTime",
          "type": "uint256"
        }
      ],
      "name": "ItemListed",
      "type": "event"
    },
    {
      "anonymous": false,
      "inputs": [
        {
          "indexed": true,
          "internalType": "address",
          "name": "seller",
          "type": "address"
        },
        {
          "indexed": true,
          "internalType": "address",
          "name": "buyer",
          "type": "address"
        },
        {
          "indexed": true,
          "internalType": "address",
          "name": "nft",
          "type": "address"
        },
        {
          "indexed": false,
          "internalType": "uint256",
          "name": "tokenId",
          "type": "uint256"
        },
        {
          "indexed": false,
          "internalType": "uint256",
          "name": "quantity",
          "type": "uint256"
        },
        {
          "indexed": false,
          "internalType": "address",
          "name": "payToken",
          "type": "address"
        },
        {
          "indexed": false,
          "internalType": "uint256",
          "name": "pricePerItem",
          "type": "uint256"
        }
      ],
      "name": "ItemSold",
      "type": "event"
    },
    {
      "anonymous": false,
      "inputs": [
        {
          "indexed": true,
          "internalType": "address",
          "name": "creator",
          "type": "address"
        },
        {
          "indexed": true,
          "internalType": "address",
          "name": "nft",
          "type": "address"
        },
        {
          "indexed": false,
          "internalType": "uint256",
          "name": "tokenId",
          "type": "uint256"
        }
      ],
      "name": "OfferCanceled",
      "type": "event"
    },
    {
      "anonymous": false,
      "inputs": [
        {
          "indexed": true,
          "internalType": "address",
          "name": "previousOwner",
          "type": "address"
        },
        {
          "indexed": true,
          "internalType": "address",
          "name": "newOwner",
          "type": "address"
        }
      ],
      "name": "OwnershipTransferred",
      "type": "event"
    },
    {
      "anonymous": false,
      "inputs": [
        {
          "indexed": false,
          "internalType": "address",
          "name": "nftAddress",
          "type": "address"
        },
        {
          "indexed": false,
          "internalType": "string",
          "name": "name",
          "type": "string"
        },
        {
          "indexed": false,
          "internalType": "string",
          "name": "owner",
          "type": "string"
        }
      ],
      "name": "RegisterCollection",
      "type": "event"
    },
    {
      "inputs": [
        {
          "internalType": "address",
          "name": "_nftAddress",
          "type": "address"
        },
        {
          "internalType": "uint256",
          "name": "_tokenId",
          "type": "uint256"
        },
        {
          "internalType": "address",
          "name": "_payToken",
          "type": "address"
        },
        {
          "internalType": "address",
          "name": "_owner",
          "type": "address"
        }
      ],
      "name": "buyItem",
      "outputs": [],
      "stateMutability": "nonpayable",
      "type": "function"
    },
    {
      "inputs": [
        {
          "internalType": "address",
          "name": "_nftAddress",
          "type": "address"
        }
      ],
      "name": "collectionAddress",
      "outputs": [
        {
          "internalType": "bool",
          "name": "",
          "type": "bool"
        }
      ],
      "stateMutability": "view",
      "type": "function"
    },
    {
      "inputs": [
        {
          "internalType": "address",
          "name": "",
          "type": "address"
        }
      ],
      "name": "collectionRoyalties",
      "outputs": [
        {
          "internalType": "uint16",
          "name": "royalty",
          "type": "uint16"
        },
        {
          "internalType": "address",
          "name": "creator",
          "type": "address"
        },
        {
          "internalType": "address",
          "name": "feeRecipient",
          "type": "address"
        }
      ],
      "stateMutability": "view",
      "type": "function"
    },
    {
      "inputs": [],
      "name": "feeReceipient",
      "outputs": [
        {
          "internalType": "address payable",
          "name": "",
          "type": "address"
        }
      ],
      "stateMutability": "view",
      "type": "function"
    },
    {
      "inputs": [
        {
          "internalType": "address payable",
          "name": "_feeRecipient",
          "type": "address"
        },
        {
          "internalType": "uint16",
          "name": "_platformFee",
          "type": "uint16"
        }
      ],
      "name": "initialize",
      "outputs": [],
      "stateMutability": "nonpayable",
      "type": "function"
    },
    {
      "inputs": [
        {
          "internalType": "address",
          "name": "_nftAddress",
          "type": "address"
        },
        {
          "internalType": "uint256",
          "name": "_tokenId",
          "type": "uint256"
        },
        {
          "internalType": "uint256",
          "name": "_quantity",
          "type": "uint256"
        },
        {
          "internalType": "address",
          "name": "_payToken",
          "type": "address"
        },
        {
          "internalType": "uint256",
          "name": "_pricePerItem",
          "type": "uint256"
        },
        {
          "internalType": "uint256",
          "name": "_startingTime",
          "type": "uint256"
        }
      ],
      "name": "listItem",
      "outputs": [],
      "stateMutability": "nonpayable",
      "type": "function"
    },
    {
      "inputs": [
        {
          "internalType": "address",
          "name": "",
          "type": "address"
        },
        {
          "internalType": "uint256",
          "name": "",
          "type": "uint256"
        },
        {
          "internalType": "address",
          "name": "",
          "type": "address"
        }
      ],
      "name": "listings",
      "outputs": [
        {
          "internalType": "uint256",
          "name": "quantity",
          "type": "uint256"
        },
        {
          "internalType": "address",
          "name": "payToken",
          "type": "address"
        },
        {
          "internalType": "uint256",
          "name": "pricePerItem",
          "type": "uint256"
        },
        {
          "internalType": "uint256",
          "name": "startingTime",
          "type": "uint256"
        }
      ],
      "stateMutability": "view",
      "type": "function"
    },
    {
      "inputs": [
        {
          "internalType": "address",
          "name": "",
          "type": "address"
        },
        {
          "internalType": "uint256",
          "name": "",
          "type": "uint256"
        }
      ],
      "name": "minters",
      "outputs": [
        {
          "internalType": "address",
          "name": "",
          "type": "address"
        }
      ],
      "stateMutability": "view",
      "type": "function"
    },
    {
      "inputs": [
        {
          "internalType": "address",
          "name": "",
          "type": "address"
        },
        {
          "internalType": "uint256",
          "name": "",
          "type": "uint256"
        },
        {
          "internalType": "address",
          "name": "",
          "type": "address"
        }
      ],
      "name": "offers",
      "outputs": [
        {
          "internalType": "contract IERC20",
          "name": "payToken",
          "type": "address"
        },
        {
          "internalType": "uint256",
          "name": "quantity",
          "type": "uint256"
        },
        {
          "internalType": "uint256",
          "name": "pricePerItem",
          "type": "uint256"
        },
        {
          "internalType": "uint256",
          "name": "deadline",
          "type": "uint256"
        }
      ],
      "stateMutability": "view",
      "type": "function"
    },
    {
      "inputs": [],
      "name": "owner",
      "outputs": [
        {
          "internalType": "address",
          "name": "",
          "type": "address"
        }
      ],
      "stateMutability": "view",
      "type": "function"
    },
    {
      "inputs": [],
      "name": "platformFee",
      "outputs": [
        {
          "internalType": "uint16",
          "name": "",
          "type": "uint16"
        }
      ],
      "stateMutability": "view",
      "type": "function"
    },
    {
      "inputs": [
        {
          "internalType": "address",
          "name": "nftAddress",
          "type": "address"
        },
        {
          "internalType": "string",
          "name": "name",
          "type": "string"
        },
        {
          "internalType": "string",
          "name": "owner",
          "type": "string"
        }
      ],
      "name": "registerCollection",
      "outputs": [],
      "stateMutability": "nonpayable",
      "type": "function"
    },
    {
      "inputs": [],
      "name": "renounceOwnership",
      "outputs": [],
      "stateMutability": "nonpayable",
      "type": "function"
    },
    {
      "inputs": [
        {
          "internalType": "address",
          "name": "",
          "type": "address"
        },
        {
          "internalType": "uint256",
          "name": "",
          "type": "uint256"
        }
      ],
      "name": "royalties",
      "outputs": [
        {
          "internalType": "uint16",
          "name": "",
          "type": "uint16"
        }
      ],
      "stateMutability": "view",
      "type": "function"
    },
    {
      "inputs": [
        {
          "internalType": "address",
          "name": "newOwner",
          "type": "address"
        }
      ],
      "name": "transferOwnership",
      "outputs": [],
      "stateMutability": "nonpayable",
      "type": "function"
    }
  ],
  "transactionHash": "0xb68cecc05f13690d990259e2373df736c57076a7aeee091da03adbc6dcf3b24d",
  "args": [],
  "numDeployments": 1,
  "solcInputHash": "b5b289806901720b336db9556b64d6e2",
  "bytecode": "0x608060405234801561001057600080fd5b50611771806100206000396000f3fe608060405234801561001057600080fd5b50600436106100f55760003560e01c806378746d0d11610097578063e1e549c411610066578063e1e549c414610335578063ee851c5514610364578063f2fde38b14610387578063f39e69a41461039a57600080fd5b806378746d0d1461026357806385f9d345146102975780638da5cb5b146102aa578063d3f494cc146102bb57600080fd5b80633fc1cc26116100d35780633fc1cc261461016657806357b275b4146101795780636bd3a64b146101e3578063715018a61461025b57600080fd5b806309d33605146100fa57806326232a2e1461010f5780633740ebb314610135575b600080fd5b61010d610108366004611326565b6103ad565b005b609d5461011d9061ffff1681565b60405161ffff90911681526020015b60405180910390f35b609d5461014e906201000090046001600160a01b031681565b6040516001600160a01b03909116815260200161012c565b61010d61017436600461139c565b6103ed565b6101b96101873660046113f8565b60a1602052600090815260409020805460019091015461ffff8216916001600160a01b03620100009091048116911683565b6040805161ffff90941684526001600160a01b03928316602085015291169082015260600161012c565b6102336101f1366004611415565b609c602090815260009384526040808520825292845282842090528252902080546001820154600283015460039093015491926001600160a01b039091169184565b604080519485526001600160a01b03909316602085015291830152606082015260800161012c565b61010d610680565b61014e610271366004611457565b609e6020908152600092835260408084209091529082529020546001600160a01b031681565b61010d6102a5366004611483565b6106e6565b6033546001600160a01b031661014e565b61030b6102c9366004611415565b60a060209081526000938452604080852082529284528284209052825290208054600182015460028301546003909301546001600160a01b0390921692909184565b604080516001600160a01b039095168552602085019390935291830152606082015260800161012c565b61011d610343366004611457565b609f60209081526000928352604080842090915290825290205461ffff1681565b6103776103723660046113f8565b6108a4565b604051901515815260200161012c565b61010d6103953660046113f8565b6108c3565b61010d6103a83660046114d6565b61098e565b7fde202c6e2fff0383007890e7919fbd78d538f45f843793f408d0ce3304757f938383836040516103e09392919061156e565b60405180910390a1505050565b8585336001600160a01b038084166000908152609c602090815260408083208684528252808320858516845282529182902082516080810184528154808252600183015490951692810192909252600281015492820192909252600390910154606082015290156104965760405162461bcd60e51b815260206004820152600e60248201526d185b1c9958591e481b1a5cdd195960921b60448201526064015b60405180910390fd5b89336040516331a9108f60e11b8152600481018c90526001600160a01b0391821691831690636352211e9060240160206040518083038186803b1580156104dc57600080fd5b505afa1580156104f0573d6000803e3d6000fd5b505050506040513d601f19601f8201168201806040525081019061051491906115ae565b6001600160a01b03161461055c5760405162461bcd60e51b815260206004820152600f60248201526e6e6f74206f776e696e67206974656d60881b604482015260640161048d565b604080516080810182528a81526001600160a01b038a81166020808401919091528284018b9052606083018a9052908e166000908152609c82528381208e82529091529182209091336001600160a01b039081168252602080830193909352604091820160002084518155928401516001840180546001600160a01b03191691909216179055820151600282015560609091015160039091015561060160978c610a31565b5061060d60998b610a4f565b50604080513381526001600160a01b038d811660208301528183018d9052606082018c90528a16608082015260a0810189905260c0810188905290517fa0294f02f8ad82fe4744717b0f953a105547196cd3c67056200c1a4ae3aa26299181900360e00190a15050505050505050505050565b6033546001600160a01b031633146106da5760405162461bcd60e51b815260206004820181905260248201527f4f776e61626c653a2063616c6c6572206973206e6f7420746865206f776e6572604482015260640161048d565b6106e46000610a5b565b565b600260655414156107395760405162461bcd60e51b815260206004820152601f60248201527f5265656e7472616e637947756172643a207265656e7472616e742063616c6c00604482015260640161048d565b600260658190556001600160a01b038086166000908152609c60209081526040808320888452825280832084871684528252918290208251608081018452815480825260018301549095169281019290925293840154918101919091526003909201546060830152859185918491906107e65760405162461bcd60e51b815260206004820152600f60248201526e6e6f74206c6973746564206974656d60881b604482015260640161048d565b6001600160a01b038089166000908152609c602090815260408083208b8452825280832089851684528252918290208251608081018452815481526001820154851692810183905260028201549381019390935260030154606083015290918816146108885760405162461bcd60e51b815260206004820152601160248201527034b73b30b634b2103830bc903a37b5b2b760791b604482015260640161048d565b61089489898989610aad565b5050600160655550505050505050565b60006108b1609783610e04565b156108be57506001919050565b919050565b6033546001600160a01b0316331461091d5760405162461bcd60e51b815260206004820181905260248201527f4f776e61626c653a2063616c6c6572206973206e6f7420746865206f776e6572604482015260640161048d565b6001600160a01b0381166109825760405162461bcd60e51b815260206004820152602660248201527f4f776e61626c653a206e6577206f776e657220697320746865207a65726f206160448201526564647265737360d01b606482015260840161048d565b61098b81610a5b565b50565b600061099a6001610e26565b905080156109b2576000805461ff0019166101001790555b609d80546001600160a01b03851662010000026001600160b01b031990911661ffff8516171790556109e2610eae565b6109ea610edd565b8015610a2c576000805461ff0019169055604051600181527f7f26b83ff96e1f2b6a682f133852f6798a09c465da95921460cefb3847402498906020016103e0565b505050565b6000610a46836001600160a01b038416610f0c565b90505b92915050565b6000610a468383610f0c565b603380546001600160a01b038381166001600160a01b0319831681179093556040519116919082907f8be0079c531659141344cd1fd0a4f28419497f9722a3daafe3b4186f6b6457e090600090a35050565b6001600160a01b038085166000908152609c602090815260408083208784528252808320858516845282528083208151608081018352815480825260018301549096169381019390935260028101549183018290526003015460608301529092610b16916115e1565b609d549091506000906103e890610b319061ffff16846115e1565b610b3b9190611600565b9050610b5e33609d546001600160a01b0388811692916201000090041684610f5b565b6001600160a01b038088166000818152609e602090815260408083208b8452825280832054938352609f82528083208b845290915290205491169061ffff168115801590610baf575061ffff811615155b15610c06576000612710610bc761ffff8416866115e1565b610bd19190611600565b610bdb9086611622565b9050610bf4335b6001600160a01b038a16908584610f5b565b610bfe8185611639565b935050610c86565b50506001600160a01b03808816600090815260a1602052604090206001810154905491169061ffff168115801590610c41575061ffff811615155b15610c86576000612710610c5961ffff8416866115e1565b610c639190611600565b610c6d9086611622565b9050610c7833610be2565b610c828185611639565b9350505b610ca73387610c958688611622565b6001600160a01b038b16929190610f5b565b6001600160a01b0389166342842e0e87336040516001600160e01b031960e085901b1681526001600160a01b03928316600482015291166024820152604481018b9052606401600060405180830381600087803b158015610d0757600080fd5b505af1158015610d1b573d6000803e3d6000fd5b50505050886001600160a01b0316610d303390565b86516001600160a01b03918216918916907f33288df29d0f4a78de0aab5956626ed28d0abeb944e8f0d78dd1031efb53941f908c908c610d70828c611600565b604051610d9f949392919093845260208401929092526001600160a01b03166040830152606082015260800190565b60405180910390a45050506001600160a01b039586166000908152609c6020908152604080832097835296815286822094909716815292909552509182208281556001810180546001600160a01b031916905560028101839055600301919091555050565b6001600160a01b03811660009081526001830160205260408120541515610a46565b60008054610100900460ff1615610e6d578160ff166001148015610e495750303b155b610e655760405162461bcd60e51b815260040161048d90611651565b506000919050565b60005460ff808416911610610e945760405162461bcd60e51b815260040161048d90611651565b506000805460ff191660ff92909216919091179055600190565b600054610100900460ff16610ed55760405162461bcd60e51b815260040161048d9061169f565b6106e4610fbb565b600054610100900460ff16610f045760405162461bcd60e51b815260040161048d9061169f565b6106e4610feb565b6000818152600183016020526040812054610f5357508154600181810184556000848152602080822090930184905584548482528286019093526040902091909155610a49565b506000610a49565b604080516001600160a01b0385811660248301528416604482015260648082018490528251808303909101815260849091019091526020810180516001600160e01b03166323b872dd60e01b179052610fb5908590611019565b50505050565b600054610100900460ff16610fe25760405162461bcd60e51b815260040161048d9061169f565b6106e433610a5b565b600054610100900460ff166110125760405162461bcd60e51b815260040161048d9061169f565b6001606555565b600061106e826040518060400160405280602081526020017f5361666545524332303a206c6f772d6c6576656c2063616c6c206661696c6564815250856001600160a01b03166110eb9092919063ffffffff16565b805190915015610a2c578080602001905181019061108c91906116ea565b610a2c5760405162461bcd60e51b815260206004820152602a60248201527f5361666545524332303a204552433230206f7065726174696f6e20646964206e6044820152691bdd081cdd58d8d9595960b21b606482015260840161048d565b60606110fa8484600085611104565b90505b9392505050565b6060824710156111655760405162461bcd60e51b815260206004820152602660248201527f416464726573733a20696e73756666696369656e742062616c616e636520666f6044820152651c8818d85b1b60d21b606482015260840161048d565b6001600160a01b0385163b6111bc5760405162461bcd60e51b815260206004820152601d60248201527f416464726573733a2063616c6c20746f206e6f6e2d636f6e7472616374000000604482015260640161048d565b600080866001600160a01b031685876040516111d8919061170c565b60006040518083038185875af1925050503d8060008114611215576040519150601f19603f3d011682016040523d82523d6000602084013e61121a565b606091505b509150915061122a828286611235565b979650505050505050565b606083156112445750816110fd565b8251156112545782518084602001fd5b8160405162461bcd60e51b815260040161048d9190611728565b6001600160a01b038116811461098b57600080fd5b634e487b7160e01b600052604160045260246000fd5b600082601f8301126112aa57600080fd5b813567ffffffffffffffff808211156112c5576112c5611283565b604051601f8301601f19908116603f011681019082821181831017156112ed576112ed611283565b8160405283815286602085880101111561130657600080fd5b836020870160208301376000602085830101528094505050505092915050565b60008060006060848603121561133b57600080fd5b83356113468161126e565b9250602084013567ffffffffffffffff8082111561136357600080fd5b61136f87838801611299565b9350604086013591508082111561138557600080fd5b5061139286828701611299565b9150509250925092565b60008060008060008060c087890312156113b557600080fd5b86356113c08161126e565b9550602087013594506040870135935060608701356113de8161126e565b9598949750929560808101359460a0909101359350915050565b60006020828403121561140a57600080fd5b81356110fd8161126e565b60008060006060848603121561142a57600080fd5b83356114358161126e565b925060208401359150604084013561144c8161126e565b809150509250925092565b6000806040838503121561146a57600080fd5b82356114758161126e565b946020939093013593505050565b6000806000806080858703121561149957600080fd5b84356114a48161126e565b93506020850135925060408501356114bb8161126e565b915060608501356114cb8161126e565b939692955090935050565b600080604083850312156114e957600080fd5b82356114f48161126e565b9150602083013561ffff8116811461150b57600080fd5b809150509250929050565b60005b83811015611531578181015183820152602001611519565b83811115610fb55750506000910152565b6000815180845261155a816020860160208601611516565b601f01601f19169290920160200192915050565b6001600160a01b038416815260606020820181905260009061159290830185611542565b82810360408401526115a48185611542565b9695505050505050565b6000602082840312156115c057600080fd5b81516110fd8161126e565b634e487b7160e01b600052601160045260246000fd5b60008160001904831182151516156115fb576115fb6115cb565b500290565b60008261161d57634e487b7160e01b600052601260045260246000fd5b500490565b600082821015611634576116346115cb565b500390565b6000821982111561164c5761164c6115cb565b500190565b6020808252602e908201527f496e697469616c697a61626c653a20636f6e747261637420697320616c72656160408201526d191e481a5b9a5d1a585b1a5e995960921b606082015260800190565b6020808252602b908201527f496e697469616c697a61626c653a20636f6e7472616374206973206e6f74206960408201526a6e697469616c697a696e6760a81b606082015260800190565b6000602082840312156116fc57600080fd5b815180151581146110fd57600080fd5b6000825161171e818460208701611516565b9190910192915050565b602081526000610a46602083018461154256fea2646970667358221220e2e98d05195a6e2a8794ecf112c6a28588985f9884edd70ad1b4db58d1a740b564736f6c63430008090033",
  "devdoc": {
    "kind": "dev",
    "methods": {
      "buyItem(address,uint256,address,address)": {
        "params": {
          "_nftAddress": "NFT contract address",
          "_tokenId": "TokenId"
        }
      },
      "owner()": {
        "details": "Returns the address of the current owner."
      },
      "renounceOwnership()": {
        "details": "Leaves the contract without owner. It will not be possible to call `onlyOwner` functions anymore. Can only be called by the current owner. NOTE: Renouncing ownership will leave the contract without an owner, thereby removing any functionality that is only available to the owner."
      },
      "transferOwnership(address)": {
        "details": "Transfers ownership of the contract to a new account (`newOwner`). Can only be called by the current owner."
      }
    },
    "version": 1
  },
  "userdoc": {
    "events": {
      "RegisterCollection(address,string,string)": {
        "notice": "Events for the contract"
      }
    },
    "kind": "user",
    "methods": {
      "buyItem(address,uint256,address,address)": {
        "notice": "Method for buying listed NFT"
      },
      "collectionRoyalties(address)": {
        "notice": "NftAddress -> Royalty"
      },
      "feeReceipient()": {
        "notice": "Platform fee receipient"
      },
      "listings(address,uint256,address)": {
        "notice": "NftAddress -> Token ID -> Owner -> Listing item"
      },
      "minters(address,uint256)": {
        "notice": "NftAddress -> Token ID -> Minter"
      },
      "offers(address,uint256,address)": {
        "notice": "NftAddress -> Token ID -> Offerer -> Offer"
      },
      "platformFee()": {
        "notice": "Platform fee"
      },
      "royalties(address,uint256)": {
        "notice": "NftAddress -> Token ID -> Royalty"
      }
    },
    "version": 1
  },
  "storageLayout": {
    "storage": [
      {
        "astId": 130,
        "contract": "contracts/Marketplace.sol:Marketplace",
        "label": "_initialized",
        "offset": 0,
        "slot": "0",
        "type": "t_uint8"
      },
      {
        "astId": 133,
        "contract": "contracts/Marketplace.sol:Marketplace",
        "label": "_initializing",
        "offset": 1,
        "slot": "0",
        "type": "t_bool"
      },
      {
        "astId": 608,
        "contract": "contracts/Marketplace.sol:Marketplace",
        "label": "__gap",
        "offset": 0,
        "slot": "1",
        "type": "t_array(t_uint256)50_storage"
      },
      {
        "astId": 10,
        "contract": "contracts/Marketplace.sol:Marketplace",
        "label": "_owner",
        "offset": 0,
        "slot": "51",
        "type": "t_address"
      },
      {
        "astId": 122,
        "contract": "contracts/Marketplace.sol:Marketplace",
        "label": "__gap",
        "offset": 0,
        "slot": "52",
        "type": "t_array(t_uint256)49_storage"
      },
      {
        "astId": 279,
        "contract": "contracts/Marketplace.sol:Marketplace",
        "label": "_status",
        "offset": 0,
        "slot": "101",
        "type": "t_uint256"
      },
      {
        "astId": 323,
        "contract": "contracts/Marketplace.sol:Marketplace",
        "label": "__gap",
        "offset": 0,
        "slot": "102",
        "type": "t_array(t_uint256)49_storage"
      },
      {
        "astId": 5286,
        "contract": "contracts/Marketplace.sol:Marketplace",
        "label": "_nftCollectionAddress",
        "offset": 0,
        "slot": "151",
        "type": "t_struct(AddressSet)4965_storage"
      },
      {
        "astId": 5293,
        "contract": "contracts/Marketplace.sol:Marketplace",
        "label": "_nftCollectionTokenId",
        "offset": 0,
        "slot": "153",
        "type": "t_struct(UintSet)5122_storage"
      },
      {
        "astId": 5326,
        "contract": "contracts/Marketplace.sol:Marketplace",
        "label": "_nftCollectionSet",
        "offset": 0,
        "slot": "155",
        "type": "t_mapping(t_address,t_mapping(t_uint256,t_struct(UintSet)5122_storage))"
      },
      {
        "astId": 5336,
        "contract": "contracts/Marketplace.sol:Marketplace",
        "label": "listings",
        "offset": 0,
        "slot": "156",
        "type": "t_mapping(t_address,t_mapping(t_uint256,t_mapping(t_address,t_struct(Listing)5302_storage)))"
      },
      {
        "astId": 5339,
        "contract": "contracts/Marketplace.sol:Marketplace",
        "label": "platformFee",
        "offset": 0,
        "slot": "157",
        "type": "t_uint16"
      },
      {
        "astId": 5342,
        "contract": "contracts/Marketplace.sol:Marketplace",
        "label": "feeReceipient",
        "offset": 2,
        "slot": "157",
        "type": "t_address_payable"
      },
      {
        "astId": 5349,
        "contract": "contracts/Marketplace.sol:Marketplace",
        "label": "minters",
        "offset": 0,
        "slot": "158",
        "type": "t_mapping(t_address,t_mapping(t_uint256,t_address))"
      },
      {
        "astId": 5356,
        "contract": "contracts/Marketplace.sol:Marketplace",
        "label": "royalties",
        "offset": 0,
        "slot": "159",
        "type": "t_mapping(t_address,t_mapping(t_uint256,t_uint16))"
      },
      {
        "astId": 5366,
        "contract": "contracts/Marketplace.sol:Marketplace",
        "label": "offers",
        "offset": 0,
        "slot": "160",
        "type": "t_mapping(t_address,t_mapping(t_uint256,t_mapping(t_address,t_struct(Offer)5312_storage)))"
      },
      {
        "astId": 5372,
        "contract": "contracts/Marketplace.sol:Marketplace",
        "label": "collectionRoyalties",
        "offset": 0,
        "slot": "161",
        "type": "t_mapping(t_address,t_struct(CollectionRoyalty)5319_storage)"
      }
    ],
    "types": {
      "t_address": {
        "encoding": "inplace",
        "label": "address",
        "numberOfBytes": "20"
      },
      "t_address_payable": {
        "encoding": "inplace",
        "label": "address payable",
        "numberOfBytes": "20"
      },
      "t_array(t_bytes32)dyn_storage": {
        "base": "t_bytes32",
        "encoding": "dynamic_array",
        "label": "bytes32[]",
        "numberOfBytes": "32"
      },
      "t_array(t_uint256)49_storage": {
        "base": "t_uint256",
        "encoding": "inplace",
        "label": "uint256[49]",
        "numberOfBytes": "1568"
      },
      "t_array(t_uint256)50_storage": {
        "base": "t_uint256",
        "encoding": "inplace",
        "label": "uint256[50]",
        "numberOfBytes": "1600"
      },
      "t_bool": {
        "encoding": "inplace",
        "label": "bool",
        "numberOfBytes": "1"
      },
      "t_bytes32": {
        "encoding": "inplace",
        "label": "bytes32",
        "numberOfBytes": "32"
      },
      "t_contract(IERC20)1798": {
        "encoding": "inplace",
        "label": "contract IERC20",
        "numberOfBytes": "20"
      },
      "t_mapping(t_address,t_mapping(t_uint256,t_address))": {
        "encoding": "mapping",
        "key": "t_address",
        "label": "mapping(address => mapping(uint256 => address))",
        "numberOfBytes": "32",
        "value": "t_mapping(t_uint256,t_address)"
      },
      "t_mapping(t_address,t_mapping(t_uint256,t_mapping(t_address,t_struct(Listing)5302_storage)))": {
        "encoding": "mapping",
        "key": "t_address",
        "label": "mapping(address => mapping(uint256 => mapping(address => struct Marketplace.Listing)))",
        "numberOfBytes": "32",
        "value": "t_mapping(t_uint256,t_mapping(t_address,t_struct(Listing)5302_storage))"
      },
      "t_mapping(t_address,t_mapping(t_uint256,t_mapping(t_address,t_struct(Offer)5312_storage)))": {
        "encoding": "mapping",
        "key": "t_address",
        "label": "mapping(address => mapping(uint256 => mapping(address => struct Marketplace.Offer)))",
        "numberOfBytes": "32",
        "value": "t_mapping(t_uint256,t_mapping(t_address,t_struct(Offer)5312_storage))"
      },
      "t_mapping(t_address,t_mapping(t_uint256,t_struct(UintSet)5122_storage))": {
        "encoding": "mapping",
        "key": "t_address",
        "label": "mapping(address => mapping(uint256 => struct EnumerableSet.UintSet))",
        "numberOfBytes": "32",
        "value": "t_mapping(t_uint256,t_struct(UintSet)5122_storage)"
      },
      "t_mapping(t_address,t_mapping(t_uint256,t_uint16))": {
        "encoding": "mapping",
        "key": "t_address",
        "label": "mapping(address => mapping(uint256 => uint16))",
        "numberOfBytes": "32",
        "value": "t_mapping(t_uint256,t_uint16)"
      },
      "t_mapping(t_address,t_struct(CollectionRoyalty)5319_storage)": {
        "encoding": "mapping",
        "key": "t_address",
        "label": "mapping(address => struct Marketplace.CollectionRoyalty)",
        "numberOfBytes": "32",
        "value": "t_struct(CollectionRoyalty)5319_storage"
      },
      "t_mapping(t_address,t_struct(Listing)5302_storage)": {
        "encoding": "mapping",
        "key": "t_address",
        "label": "mapping(address => struct Marketplace.Listing)",
        "numberOfBytes": "32",
        "value": "t_struct(Listing)5302_storage"
      },
      "t_mapping(t_address,t_struct(Offer)5312_storage)": {
        "encoding": "mapping",
        "key": "t_address",
        "label": "mapping(address => struct Marketplace.Offer)",
        "numberOfBytes": "32",
        "value": "t_struct(Offer)5312_storage"
      },
      "t_mapping(t_bytes32,t_uint256)": {
        "encoding": "mapping",
        "key": "t_bytes32",
        "label": "mapping(bytes32 => uint256)",
        "numberOfBytes": "32",
        "value": "t_uint256"
      },
      "t_mapping(t_uint256,t_address)": {
        "encoding": "mapping",
        "key": "t_uint256",
        "label": "mapping(uint256 => address)",
        "numberOfBytes": "32",
        "value": "t_address"
      },
      "t_mapping(t_uint256,t_mapping(t_address,t_struct(Listing)5302_storage))": {
        "encoding": "mapping",
        "key": "t_uint256",
        "label": "mapping(uint256 => mapping(address => struct Marketplace.Listing))",
        "numberOfBytes": "32",
        "value": "t_mapping(t_address,t_struct(Listing)5302_storage)"
      },
      "t_mapping(t_uint256,t_mapping(t_address,t_struct(Offer)5312_storage))": {
        "encoding": "mapping",
        "key": "t_uint256",
        "label": "mapping(uint256 => mapping(address => struct Marketplace.Offer))",
        "numberOfBytes": "32",
        "value": "t_mapping(t_address,t_struct(Offer)5312_storage)"
      },
      "t_mapping(t_uint256,t_struct(UintSet)5122_storage)": {
        "encoding": "mapping",
        "key": "t_uint256",
        "label": "mapping(uint256 => struct EnumerableSet.UintSet)",
        "numberOfBytes": "32",
        "value": "t_struct(UintSet)5122_storage"
      },
      "t_mapping(t_uint256,t_uint16)": {
        "encoding": "mapping",
        "key": "t_uint256",
        "label": "mapping(uint256 => uint16)",
        "numberOfBytes": "32",
        "value": "t_uint16"
      },
      "t_struct(AddressSet)4965_storage": {
        "encoding": "inplace",
        "label": "struct EnumerableSet.AddressSet",
        "members": [
          {
            "astId": 4964,
            "contract": "contracts/Marketplace.sol:Marketplace",
            "label": "_inner",
            "offset": 0,
            "slot": "0",
            "type": "t_struct(Set)4664_storage"
          }
        ],
        "numberOfBytes": "64"
      },
      "t_struct(CollectionRoyalty)5319_storage": {
        "encoding": "inplace",
        "label": "struct Marketplace.CollectionRoyalty",
        "members": [
          {
            "astId": 5314,
            "contract": "contracts/Marketplace.sol:Marketplace",
            "label": "royalty",
            "offset": 0,
            "slot": "0",
            "type": "t_uint16"
          },
          {
            "astId": 5316,
            "contract": "contracts/Marketplace.sol:Marketplace",
            "label": "creator",
            "offset": 2,
            "slot": "0",
            "type": "t_address"
          },
          {
            "astId": 5318,
            "contract": "contracts/Marketplace.sol:Marketplace",
            "label": "feeRecipient",
            "offset": 0,
            "slot": "1",
            "type": "t_address"
          }
        ],
        "numberOfBytes": "64"
      },
      "t_struct(Listing)5302_storage": {
        "encoding": "inplace",
        "label": "struct Marketplace.Listing",
        "members": [
          {
            "astId": 5295,
            "contract": "contracts/Marketplace.sol:Marketplace",
            "label": "quantity",
            "offset": 0,
            "slot": "0",
            "type": "t_uint256"
          },
          {
            "astId": 5297,
            "contract": "contracts/Marketplace.sol:Marketplace",
            "label": "payToken",
            "offset": 0,
            "slot": "1",
            "type": "t_address"
          },
          {
            "astId": 5299,
            "contract": "contracts/Marketplace.sol:Marketplace",
            "label": "pricePerItem",
            "offset": 0,
            "slot": "2",
            "type": "t_uint256"
          },
          {
            "astId": 5301,
            "contract": "contracts/Marketplace.sol:Marketplace",
            "label": "startingTime",
            "offset": 0,
            "slot": "3",
            "type": "t_uint256"
          }
        ],
        "numberOfBytes": "128"
      },
      "t_struct(Offer)5312_storage": {
        "encoding": "inplace",
        "label": "struct Marketplace.Offer",
        "members": [
          {
            "astId": 5305,
            "contract": "contracts/Marketplace.sol:Marketplace",
            "label": "payToken",
            "offset": 0,
            "slot": "0",
            "type": "t_contract(IERC20)1798"
          },
          {
            "astId": 5307,
            "contract": "contracts/Marketplace.sol:Marketplace",
            "label": "quantity",
            "offset": 0,
            "slot": "1",
            "type": "t_uint256"
          },
          {
            "astId": 5309,
            "contract": "contracts/Marketplace.sol:Marketplace",
            "label": "pricePerItem",
            "offset": 0,
            "slot": "2",
            "type": "t_uint256"
          },
          {
            "astId": 5311,
            "contract": "contracts/Marketplace.sol:Marketplace",
            "label": "deadline",
            "offset": 0,
            "slot": "3",
            "type": "t_uint256"
          }
        ],
        "numberOfBytes": "128"
      },
      "t_struct(Set)4664_storage": {
        "encoding": "inplace",
        "label": "struct EnumerableSet.Set",
        "members": [
          {
            "astId": 4659,
            "contract": "contracts/Marketplace.sol:Marketplace",
            "label": "_values",
            "offset": 0,
            "slot": "0",
            "type": "t_array(t_bytes32)dyn_storage"
          },
          {
            "astId": 4663,
            "contract": "contracts/Marketplace.sol:Marketplace",
            "label": "_indexes",
            "offset": 0,
            "slot": "1",
            "type": "t_mapping(t_bytes32,t_uint256)"
          }
        ],
        "numberOfBytes": "64"
      },
      "t_struct(UintSet)5122_storage": {
        "encoding": "inplace",
        "label": "struct EnumerableSet.UintSet",
        "members": [
          {
            "astId": 5121,
            "contract": "contracts/Marketplace.sol:Marketplace",
            "label": "_inner",
            "offset": 0,
            "slot": "0",
            "type": "t_struct(Set)4664_storage"
          }
        ],
        "numberOfBytes": "64"
      },
      "t_uint16": {
        "encoding": "inplace",
        "label": "uint16",
        "numberOfBytes": "2"
      },
      "t_uint256": {
        "encoding": "inplace",
        "label": "uint256",
        "numberOfBytes": "32"
      },
      "t_uint8": {
        "encoding": "inplace",
        "label": "uint8",
        "numberOfBytes": "1"
      }
    }
  }
}